{
  "_format": "hh-sol-artifact-1",
  "contractName": "Game",
  "sourceName": "contracts/Game.sol",
  "abi": [
    {
      "inputs": [],
      "name": "ChallengeNotTaken",
      "type": "error"
    },
    {
      "inputs": [
        {
          "internalType": "uint256",
          "name": "deposit",
          "type": "uint256"
        },
        {
          "internalType": "uint256",
          "name": "minDeposit",
          "type": "uint256"
        }
      ],
      "name": "InsufficientDeposit",
      "type": "error"
    },
    {
      "inputs": [],
      "name": "NotPossibleDuringGame",
      "type": "error"
    },
    {
      "inputs": [],
      "name": "NothingToReveal",
      "type": "error"
    },
    {
      "inputs": [],
      "name": "ResultFunctionShouldBeCalled",
      "type": "error"
    },
    {
      "inputs": [
        {
          "internalType": "address",
          "name": "player",
          "type": "address"
        }
      ],
      "name": "RevealMoveFirst",
      "type": "error"
    },
    {
      "inputs": [
        {
          "internalType": "uint256",
          "name": "time",
          "type": "uint256"
        }
      ],
      "name": "TooEarly",
      "type": "error"
    },
    {
      "inputs": [],
      "name": "TwoPlayersAreNeeded",
      "type": "error"
    },
    {
      "anonymous": false,
      "inputs": [
        {
          "indexed": true,
          "internalType": "address",
          "name": "winner",
          "type": "address"
        },
        {
          "indexed": true,
          "internalType": "address",
          "name": "playerOne",
          "type": "address"
        },
        {
          "indexed": true,
          "internalType": "address",
          "name": "playerTwo",
          "type": "address"
        }
      ],
      "name": "GameEnded",
      "type": "event"
    },
    {
      "inputs": [
        {
          "internalType": "address",
          "name": "",
          "type": "address"
        }
      ],
      "name": "balance",
      "outputs": [
        {
          "internalType": "uint256",
          "name": "",
          "type": "uint256"
        }
      ],
      "stateMutability": "view",
      "type": "function"
    },
    {
      "inputs": [],
      "name": "deposit",
      "outputs": [],
      "stateMutability": "payable",
      "type": "function"
    },
    {
      "inputs": [
        {
          "internalType": "bytes32",
          "name": "_blindedMove",
          "type": "bytes32"
        },
        {
          "internalType": "uint256",
          "name": "_wager",
          "type": "uint256"
        },
        {
          "internalType": "address",
          "name": "_counterPlayer",
          "type": "address"
        }
      ],
      "name": "move",
      "outputs": [],
      "stateMutability": "nonpayable",
      "type": "function"
    },
    {
      "inputs": [
        {
          "internalType": "address",
          "name": "",
          "type": "address"
        }
      ],
      "name": "moves",
      "outputs": [
        {
          "internalType": "bytes32",
          "name": "blindedMove",
          "type": "bytes32"
        },
        {
          "internalType": "uint256",
          "name": "wager",
          "type": "uint256"
        },
        {
          "internalType": "uint256",
          "name": "timeStamp",
          "type": "uint256"
        },
        {
          "internalType": "address",
          "name": "counterPlayer",
          "type": "address"
        },
        {
          "internalType": "bool",
          "name": "notRevealed",
          "type": "bool"
        },
        {
          "internalType": "enum Game.Choice",
          "name": "choice",
          "type": "uint8"
        }
      ],
      "stateMutability": "view",
      "type": "function"
    },
    {
      "inputs": [],
      "name": "result",
      "outputs": [],
      "stateMutability": "nonpayable",
      "type": "function"
    },
    {
      "inputs": [
        {
          "internalType": "enum Game.Choice",
          "name": "_choice",
          "type": "uint8"
        },
        {
          "internalType": "bytes32",
          "name": "_salt",
          "type": "bytes32"
        }
      ],
      "name": "reveal",
      "outputs": [
        {
          "internalType": "bool",
          "name": "",
          "type": "bool"
        }
      ],
      "stateMutability": "nonpayable",
      "type": "function"
    },
    {
      "inputs": [],
      "name": "terminateGame",
      "outputs": [],
      "stateMutability": "nonpayable",
      "type": "function"
    },
    {
      "inputs": [],
      "name": "withdraw",
      "outputs": [
        {
          "internalType": "bool",
          "name": "",
          "type": "bool"
        }
      ],
      "stateMutability": "nonpayable",
      "type": "function"
    }
  ],
  "bytecode": "0x608060405234801561001057600080fd5b50610e4f806100206000396000f3fe60806040526004361061007b5760003560e01c806397661f311161004e57806397661f3114610101578063d0e30db014610116578063e15a808b1461011e578063e3d670d71461019157600080fd5b80633ccfd60b146100805780633fc8ae06146100aa57806365372147146100ca5780637eae73fb146100e1575b600080fd5b34801561008c57600080fd5b506100956101cc565b60405190151581526020015b60405180910390f35b3480156100b657600080fd5b506100956100c5366004610ce0565b610261565b3480156100d657600080fd5b506100df610395565b005b3480156100ed57600080fd5b506100df6100fc366004610cab565b610982565b34801561010d57600080fd5b506100df610ab4565b6100df610c47565b34801561012a57600080fd5b5061017f610139366004610c89565b6000602081905290815260409020805460018201546002830154600390930154919290916001600160a01b0381169060ff600160a01b8204811691600160a81b90041686565b6040516100a196959493929190610d44565b34801561019d57600080fd5b506101be6101ac366004610c89565b60016020526000908152604090205481565b6040519081526020016100a1565b336000908152602081905260408120600301546001600160a01b03161561020657604051634feb897760e11b815260040160405180910390fd5b33600090815260016020526040902054801561025957336000818152600160205260408082208290555183156108fc0291849190818181858888f19350505050158015610257573d6000803e3d6000fd5b505b600191505090565b33600090815260208190526040812060030154600160a01b900460ff1661029b576040516332cce4d560e11b815260040160405180910390fd5b336000818152602081905260408082206003908101546001600160a01b0390811680855292909320015490929116146102e7576040516323d17f0760e21b815260040160405180910390fd5b3360009081526020818152604091829020600301805460ff60a01b191690559051610316918691869101610d10565b60408051601f1981840301815291815281516020928301203360009081529283905291205414156103895733600090815260208190526040902060039081018054869260ff60a81b1990911690600160a81b90849081111561037a5761037a610e03565b0217905550600191505061038f565b60009150505b92915050565b336000818152602081905260409020600301546001600160a01b0316806103cf57604051632a3045e760e01b815260040160405180910390fd5b6001600160a01b038216600090815260208190526040902060030154600160a01b900460ff161561042357604051634a4f2bfb60e11b81526001600160a01b03831660048201526024015b60405180910390fd5b6001600160a01b038116600090815260208190526040902060030154600160a01b900460ff161561047257604051634a4f2bfb60e11b81526001600160a01b038216600482015260240161041a565b6001600160a01b0380821660009081526020819052604080822060019081015493861683529082200154909110156104c657506001600160a01b0381166000908152602081905260409020600101546104e4565b506001600160a01b0382166000908152602081905260409020600101545b6001600160a01b0383811660009081526020819052604080822060019081018390559285168252812091820155600390810154600160a81b900460ff169081111561053157610531610e03565b6001600160a01b0384166000908152602081905260409020600390810154600160a81b900460ff169081111561056957610569610e03565b14156105de576001600160a01b03808416600081815260208190526040808220600390810180546001600160a01b03199081169091559487168084528284209091018054909516909455517f93e2290a28a6f20989d4b5a8ae7df4c766dc2b8a51b0c3bffc06362753cb158a908290a4505050565b60016001600160a01b0384166000908152602081905260409020600390810154600160a81b900460ff169081111561061857610618610e03565b14801561065c575060036001600160a01b0383166000908152602081905260409020600390810154600160a81b900460ff169081111561065a5761065a610e03565b145b806106e0575060026001600160a01b0384166000908152602081905260409020600390810154600160a81b900460ff169081111561069c5761069c610e03565b1480156106e0575060016001600160a01b0383166000908152602081905260409020600390810154600160a81b900460ff16908111156106de576106de610e03565b145b80610764575060036001600160a01b0384166000908152602081905260409020600390810154600160a81b900460ff169081111561072057610720610e03565b148015610764575060026001600160a01b0383166000908152602081905260409020600390810154600160a81b900460ff169081111561076257610762610e03565b145b806107e9575060006001600160a01b0384166000908152602081905260409020600390810154600160a81b900460ff16908111156107a4576107a4610e03565b141580156107e9575060006001600160a01b0383166000908152602081905260409020600390810154600160a81b900460ff16908111156107e7576107e7610e03565b145b156108b8576001600160a01b03808416600081815260208190526040808220600390810180546001600160a01b031990811690915594871680845282842090910180549095169094555182917f93e2290a28a6f20989d4b5a8ae7df4c766dc2b8a51b0c3bffc06362753cb158a91a46001600160a01b03821660009081526001602052604081208054839290610880908490610dd6565b90915550506001600160a01b038316600090815260016020526040812080548392906108ad908490610d9f565b9091555061097d9050565b6001600160a01b03808416600081815260208190526040808220600390810180546001600160a01b031990811690915594871680845282842090910180549095169094555183917f93e2290a28a6f20989d4b5a8ae7df4c766dc2b8a51b0c3bffc06362753cb158a91a46001600160a01b0383166000908152600160205260408120805483929061094a908490610dd6565b90915550506001600160a01b03821660009081526001602052604081208054839290610977908490610d9f565b90915550505b505050565b6001600160a01b0381163314806109a057506001600160a01b038116155b156109be57604051632a3045e760e01b815260040160405180910390fd5b336000908152602081905260409020600301546001600160a01b0316156109f857604051634feb897760e11b815260040160405180910390fd5b610a03826002610db7565b336000908152600160205260409020541015610a565733600090815260016020526040902054610a34836002610db7565b6040516312e1fa3760e11b81526004810192909252602482015260440161041a565b336000908152602081905260408120848155600181018490554260028201556003810180546001600160a81b0319166001600160a01b03851617600160a01b1780825591929160ff60a81b1916600160a81b83021790555050505050565b33600090815260208190526040902060020154610ad39061012c610d9f565b804211610af657604051630a8d68c960e21b81526004810182905260240161041a565b336000818152602081905260408082206003908101546001600160a01b03908116808552929093200154909291161415610c1a5733600090815260208190526040902060030154600160a01b900460ff1615610b6757604051634a4f2bfb60e11b815233600482015260240161041a565b6001600160a01b038116600090815260208190526040902060030154600160a01b900460ff16610baa57604051633c84c4ef60e11b815260040160405180910390fd5b6001600160a01b038116600090815260208190526040812060038101805461ffff60a01b19169055600101805460029290610be6908490610db7565b9091555050336000908152602081905260408120600101805460029290610c0e908490610db7565b90915550610c44915050565b50336000908152602081905260408120600181019190915560030180546001600160a81b03191690555b50565b3360009081526001602052604081208054349290610c66908490610d9f565b9091555050565b80356001600160a01b0381168114610c8457600080fd5b919050565b600060208284031215610c9b57600080fd5b610ca482610c6d565b9392505050565b600080600060608486031215610cc057600080fd5b8335925060208401359150610cd760408501610c6d565b90509250925092565b60008060408385031215610cf357600080fd5b823560048110610d0257600080fd5b946020939093013593505050565b600060048410610d3057634e487b7160e01b600052602160045260246000fd5b5060f89290921b8252600182015260210190565b86815260208101869052604081018590526001600160a01b0384166060820152821515608082015260c0810160048310610d8e57634e487b7160e01b600052602160045260246000fd5b8260a0830152979650505050505050565b60008219821115610db257610db2610ded565b500190565b6000816000190483118215151615610dd157610dd1610ded565b500290565b600082821015610de857610de8610ded565b500390565b634e487b7160e01b600052601160045260246000fd5b634e487b7160e01b600052602160045260246000fdfea264697066735822122007b8ec0feb4d219073c59db1c388b2f22b030db844cdf1ea851af7c2bc7191db64736f6c63430008070033",
  "linkReferences": {},
  "deployedLinkReferences": {}
}