{
  "_format": "hh-sol-artifact-1",
  "contractName": "Game",
  "sourceName": "contracts/Game.sol",
  "abi": [
    {
      "inputs": [],
      "name": "CannotWithdrawDuringGame",
      "type": "error"
    },
    {
      "inputs": [],
      "name": "ChallengeNotTaken",
      "type": "error"
    },
    {
      "inputs": [
        {
          "internalType": "uint256",
          "name": "deposit",
          "type": "uint256"
        },
        {
          "internalType": "uint256",
          "name": "minDeposit",
          "type": "uint256"
        }
      ],
      "name": "InsufficientDeposit",
      "type": "error"
    },
    {
      "inputs": [],
      "name": "NothingToReveal",
      "type": "error"
    },
    {
      "inputs": [],
      "name": "ResultFunctionShouldBeCalled",
      "type": "error"
    },
    {
      "inputs": [
        {
          "internalType": "address",
          "name": "player",
          "type": "address"
        }
      ],
      "name": "RevealMoveFirst",
      "type": "error"
    },
    {
      "inputs": [
        {
          "internalType": "uint256",
          "name": "time",
          "type": "uint256"
        }
      ],
      "name": "TooEarly",
      "type": "error"
    },
    {
      "anonymous": false,
      "inputs": [
        {
          "indexed": false,
          "internalType": "address",
          "name": "winner",
          "type": "address"
        }
      ],
      "name": "GameEnded",
      "type": "event"
    },
    {
      "inputs": [
        {
          "internalType": "address",
          "name": "",
          "type": "address"
        }
      ],
      "name": "balance",
      "outputs": [
        {
          "internalType": "uint256",
          "name": "",
          "type": "uint256"
        }
      ],
      "stateMutability": "view",
      "type": "function"
    },
    {
      "inputs": [],
      "name": "deposit",
      "outputs": [],
      "stateMutability": "payable",
      "type": "function"
    },
    {
      "inputs": [
        {
          "internalType": "bytes32",
          "name": "_blindedMove",
          "type": "bytes32"
        },
        {
          "internalType": "uint256",
          "name": "_wager",
          "type": "uint256"
        },
        {
          "internalType": "address",
          "name": "_counterPlayer",
          "type": "address"
        }
      ],
      "name": "move",
      "outputs": [],
      "stateMutability": "nonpayable",
      "type": "function"
    },
    {
      "inputs": [
        {
          "internalType": "address",
          "name": "",
          "type": "address"
        }
      ],
      "name": "moves",
      "outputs": [
        {
          "internalType": "bytes32",
          "name": "blindedMove",
          "type": "bytes32"
        },
        {
          "internalType": "uint256",
          "name": "wager",
          "type": "uint256"
        },
        {
          "internalType": "uint256",
          "name": "timeStamp",
          "type": "uint256"
        },
        {
          "internalType": "address",
          "name": "counterPlayer",
          "type": "address"
        },
        {
          "internalType": "bool",
          "name": "notRevealed",
          "type": "bool"
        },
        {
          "internalType": "enum Game.Choice",
          "name": "choice",
          "type": "uint8"
        }
      ],
      "stateMutability": "view",
      "type": "function"
    },
    {
      "inputs": [],
      "name": "result",
      "outputs": [
        {
          "internalType": "address",
          "name": "",
          "type": "address"
        }
      ],
      "stateMutability": "nonpayable",
      "type": "function"
    },
    {
      "inputs": [
        {
          "internalType": "enum Game.Choice",
          "name": "_choice",
          "type": "uint8"
        },
        {
          "internalType": "bytes32",
          "name": "_salt",
          "type": "bytes32"
        }
      ],
      "name": "reveal",
      "outputs": [
        {
          "internalType": "bool",
          "name": "",
          "type": "bool"
        }
      ],
      "stateMutability": "nonpayable",
      "type": "function"
    },
    {
      "inputs": [],
      "name": "terminateGame",
      "outputs": [],
      "stateMutability": "nonpayable",
      "type": "function"
    },
    {
      "inputs": [],
      "name": "withdraw",
      "outputs": [
        {
          "internalType": "bool",
          "name": "",
          "type": "bool"
        }
      ],
      "stateMutability": "nonpayable",
      "type": "function"
    }
  ],
  "bytecode": "0x608060405234801561001057600080fd5b50610e2a806100206000396000f3fe60806040526004361061007b5760003560e01c806397661f311161004e57806397661f3114610119578063d0e30db01461012e578063e15a808b14610136578063e3d670d7146101a957600080fd5b80633ccfd60b146100805780633fc8ae06146100aa57806365372147146100ca5780637eae73fb146100f7575b600080fd5b34801561008c57600080fd5b506100956101e4565b60405190151581526020015b60405180910390f35b3480156100b657600080fd5b506100956100c5366004610cbb565b610279565b3480156100d657600080fd5b506100df6103ad565b6040516001600160a01b0390911681526020016100a1565b34801561010357600080fd5b50610117610112366004610c86565b610996565b005b34801561012557600080fd5b50610117610a8f565b610117610c22565b34801561014257600080fd5b50610197610151366004610c64565b6000602081905290815260409020805460018201546002830154600390930154919290916001600160a01b0381169060ff600160a01b8204811691600160a81b90041686565b6040516100a196959493929190610d1f565b3480156101b557600080fd5b506101d66101c4366004610c64565b60016020526000908152604090205481565b6040519081526020016100a1565b336000908152602081905260408120600301546001600160a01b03161561021e576040516319b347c360e11b815260040160405180910390fd5b33600090815260016020526040902054801561027157336000818152600160205260408082208290555183156108fc0291849190818181858888f1935050505015801561026f573d6000803e3d6000fd5b505b600191505090565b33600090815260208190526040812060030154600160a01b900460ff166102b3576040516332cce4d560e11b815260040160405180910390fd5b336000818152602081905260408082206003908101546001600160a01b0390811680855292909320015490929116146102ff576040516323d17f0760e21b815260040160405180910390fd5b3360009081526020818152604091829020600301805460ff60a01b19169055905161032e918691869101610ceb565b60408051601f1981840301815291815281516020928301203360009081529283905291205414156103a15733600090815260208190526040902060039081018054869260ff60a81b1990911690600160a81b90849081111561039257610392610dde565b021790555060019150506103a7565b60009150505b92915050565b336000818152602081905260408120600301549091906001600160a01b03811690600160a01b900460ff161561040657604051634a4f2bfb60e11b81526001600160a01b03831660048201526024015b60405180910390fd5b6001600160a01b038116600090815260208190526040902060030154600160a01b900460ff161561045557604051634a4f2bfb60e11b81526001600160a01b03821660048201526024016103fd565b6001600160a01b0380821660009081526020819052604080822060019081015493861683529082200154909110156104a957506001600160a01b0381166000908152602081905260409020600101546104c7565b506001600160a01b0382166000908152602081905260409020600101545b6001600160a01b0383811660009081526020819052604080822060019081018390559285168252812091820155600390810154600160a81b900460ff169081111561051457610514610dde565b6001600160a01b0384166000908152602081905260409020600390810154600160a81b900460ff169081111561054c5761054c610dde565b14156105ce57604051600081527f51b77d00d3c0b7e376e9ee146711ceb2c08e58a5dbe38055a618e52109f720c19060200160405180910390a1506001600160a01b03918216600090815260208190526040808220600390810180546001600160a01b0319908116909155939094168252812090920180549091169055919050565b60016001600160a01b0384166000908152602081905260409020600390810154600160a81b900460ff169081111561060857610608610dde565b14801561064c575060036001600160a01b0383166000908152602081905260409020600390810154600160a81b900460ff169081111561064a5761064a610dde565b145b806106d0575060026001600160a01b0384166000908152602081905260409020600390810154600160a81b900460ff169081111561068c5761068c610dde565b1480156106d0575060016001600160a01b0383166000908152602081905260409020600390810154600160a81b900460ff16908111156106ce576106ce610dde565b145b80610754575060036001600160a01b0384166000908152602081905260409020600390810154600160a81b900460ff169081111561071057610710610dde565b148015610754575060026001600160a01b0383166000908152602081905260409020600390810154600160a81b900460ff169081111561075257610752610dde565b145b806107d9575060006001600160a01b0384166000908152602081905260409020600390810154600160a81b900460ff169081111561079457610794610dde565b141580156107d9575060006001600160a01b0383166000908152602081905260409020600390810154600160a81b900460ff16908111156107d7576107d7610dde565b145b156108ba576001600160a01b03821660009081526001602052604081208054839290610806908490610db1565b90915550506001600160a01b03831660009081526001602052604081208054839290610833908490610d7a565b90915550506040516001600160a01b03841681527f51b77d00d3c0b7e376e9ee146711ceb2c08e58a5dbe38055a618e52109f720c19060200160405180910390a1506001600160a01b03808316600090815260208190526040808220600390810180546001600160a01b031990811690915594909316825290200180549091169055919050565b6001600160a01b038316600090815260016020526040812080548392906108e2908490610db1565b90915550506001600160a01b0382166000908152600160205260408120805483929061090f908490610d7a565b90915550506040516001600160a01b03831681527f51b77d00d3c0b7e376e9ee146711ceb2c08e58a5dbe38055a618e52109f720c19060200160405180910390a1506001600160a01b03918216600090815260208190526040808220600390810180546001600160a01b031990811690915594841683529120018054909216909155919050565b33600090815260208190526040902060030154600160a01b900460ff16156109d357604051634a4f2bfb60e11b81523360048201526024016103fd565b6109de826002610d92565b336000908152600160205260409020541015610a315733600090815260016020526040902054610a0f836002610d92565b6040516312e1fa3760e11b8152600481019290925260248201526044016103fd565b336000908152602081905260408120848155600181018490554260028201556003810180546001600160a81b0319166001600160a01b03851617600160a01b1780825591929160ff60a81b1916600160a81b83021790555050505050565b33600090815260208190526040902060020154610aae9061012c610d7a565b804211610ad157604051630a8d68c960e21b8152600481018290526024016103fd565b336000818152602081905260408082206003908101546001600160a01b03908116808552929093200154909291161415610bf55733600090815260208190526040902060030154600160a01b900460ff1615610b4257604051634a4f2bfb60e11b81523360048201526024016103fd565b6001600160a01b038116600090815260208190526040902060030154600160a01b900460ff16610b8557604051633c84c4ef60e11b815260040160405180910390fd5b6001600160a01b038116600090815260208190526040812060038101805461ffff60a01b19169055600101805460029290610bc1908490610d92565b9091555050336000908152602081905260408120600101805460029290610be9908490610d92565b90915550610c1f915050565b50336000908152602081905260408120600181019190915560030180546001600160a81b03191690555b50565b3360009081526001602052604081208054349290610c41908490610d7a565b9091555050565b80356001600160a01b0381168114610c5f57600080fd5b919050565b600060208284031215610c7657600080fd5b610c7f82610c48565b9392505050565b600080600060608486031215610c9b57600080fd5b8335925060208401359150610cb260408501610c48565b90509250925092565b60008060408385031215610cce57600080fd5b823560048110610cdd57600080fd5b946020939093013593505050565b600060048410610d0b57634e487b7160e01b600052602160045260246000fd5b5060f89290921b8252600182015260210190565b86815260208101869052604081018590526001600160a01b0384166060820152821515608082015260c0810160048310610d6957634e487b7160e01b600052602160045260246000fd5b8260a0830152979650505050505050565b60008219821115610d8d57610d8d610dc8565b500190565b6000816000190483118215151615610dac57610dac610dc8565b500290565b600082821015610dc357610dc3610dc8565b500390565b634e487b7160e01b600052601160045260246000fd5b634e487b7160e01b600052602160045260246000fdfea2646970667358221220ab3491c140b561f54835780e547dcdda963624b2b1237ba10dc316454cddced864736f6c63430008070033",
  "linkReferences": {},
  "deployedLinkReferences": {}
}